:100000000C9461000C9473000C9473000C947300B6
:100010000C9473000C9473000C9473000C94730094
:100020000C9473000C9473000C9473000C94730084
:100030000C9473000C9473000C9473000C94730074
:100040000C94F8000C9473000C9473000C947300DF
:100050000C9473000C9473000C9473000C94730054
:100060000C9473000C94730000000000250028001D
:100070002B0000000000240027002A0000000000E0
:1000800023002600290004040404040404040202DA
:100090000202020203030303030301020408102007
:1000A0004080010204081020010204081020000012
:1000B0000008000201000003040700000000000027
:1000C000000011241FBECFEFD8E0DEBFCDBF21E07E
:1000D000A0E0B1E001C01D92AF30B207E1F70E948D
:1000E00042010C94FC010C940000833081F028F450
:1000F000813099F08230A9F008958730A9F08830D6
:10010000C9F08430B1F4809180008F7D03C080916C
:1001100080008F7780938000089584B58F7784BDA9
:10012000089584B58F7DFBCF8091B0008F77809349
:10013000B00008958091B0008F7DF9CFCF93DF9309
:10014000282F30E0F901E255FF4F8491F901E6567E
:10015000FF4FD491F901EA57FF4FC491CC23A1F08E
:1001600081110E947500EC2FF0E0EE0FFF1FE458A4
:10017000FF4FA591B491EC91ED2381E090E009F45B
:1001800080E0DF91CF91089580E090E0FACFCF93A7
:10019000DF9390E0FC01E656FF4F24918A579F4F72
:1001A000FC0184918823D1F090E0880F991FFC0115
:1001B000EE58FF4FA591B491FC01E859FF4FC5914E
:1001C000D49161110EC09FB7F8948C91E22FE09505
:1001D0008E238C932881E223E8839FBFDF91CF9108
:1001E00008958FB7F894EC91E22BEC938FBFF6CF84
:1001F0001F920F920FB60F9211242F933F938F935C
:100200009F93AF93BF9380910B0190910C01A091AC
:100210000D01B0910E0130910A0123E0230F2D371B
:1002200058F50196A11DB11D20930A0180930B0181
:1002300090930C01A0930D01B0930E0180910601E3
:1002400090910701A0910801B09109010196A11DAB
:10025000B11D8093060190930701A0930801B0930C
:100260000901BF91AF919F918F913F912F910F9075
:100270000FBE0F901F90189526E8230F0296A11D20
:10028000B11DD2CF789484B5826084BD84B581607D
:1002900084BD85B5826085BD85B5816085BD809151
:1002A0006E00816080936E001092810080918100C9
:1002B00082608093810080918100816080938100C1
:1002C000809180008160809380008091B100846083
:1002D0008093B1008091B00081608093B0008091E4
:1002E0007A00846080937A0080917A0082608093A3
:1002F0007A0080917A00816080937A0080917A0000
:10030000806880937A001092C10061E08DE00E94C5
:10031000C70060E082E00E94C70060E083E00E94C6
:10032000C70060E084E00E94C70060E085E00E94B2
:10033000C7009BEB692E90E0792E27EAC22E20E0C1
:10034000D22E33E9A32E30E0B32E40E0842E40E0DD
:10035000942E82E00E949E007C0190930501809380
:10036000040183E00E949E008C019093030180931E
:10037000020184E00E949E00EC01909301018093B1
:10038000000185E00E949E0021E030E0EF2811F09E
:1003900030E020E002231323C02BD12B31E0CD2B02
:1003A00009F430E0D1E0892B09F0D0E0D323F30148
:1003B0008491F601C491F50114911123A1F08111EA
:1003C0000E947500E12FF0E0EE0FFF1FE859FF4F8C
:1003D000A591B4918FB7F8949C91DD2359F0C09505
:1003E000C923CC938FBF8114910409F4B2CF0E942A
:0C03F0000000AFCFC92BF5CFF894FFCF71
:00000001FF
