:100000000C9434000C943E000C943E000C943E0082
:100010000C943E000C943E000C943E000C943E0068
:100020000C943E000C943E000C943E000C943E0058
:100030000C943E000C943E000C943E000C943E0048
:100040000C943E000C943E000C943E000C943E0038
:100050000C943E000C943E000C943E000C943E0028
:100060000C943E000C943E0011241FBECFEFD8E04C
:10007000DEBFCDBF0E944D000C9465000C940000C3
:1000800091E0892708958111862F0895882319F01A
:1000900081E08627089581E008958AB18AB9259A7A
:1000A00040E289B1982F9870382F3071282F207234
:1000B00082FF08C0332321F0211102C015B8F1CF0F
:0E00C00045B9EFCF9111F8CFF5CFF894FFCFEF
:00000001FF
